{
  "contractName": "dApp",
  "abi": [
    {
      "constant": true,
      "inputs": [],
      "name": "totalSupply",
      "outputs": [
        {
          "name": "",
          "type": "uint256"
        }
      ],
      "payable": false,
      "stateMutability": "view",
      "type": "function"
    },
    {
      "inputs": [],
      "payable": false,
      "stateMutability": "nonpayable",
      "type": "constructor"
    }
  ],
  "bytecode": "0x608060405234801561001057600080fd5b50620f4240600081905550609e806100296000396000f300608060405260043610603f576000357c0100000000000000000000000000000000000000000000000000000000900463ffffffff16806318160ddd146044575b600080fd5b348015604f57600080fd5b506056606c565b6040518082815260200191505060405180910390f35b600054815600a165627a7a723058200b7c82be86285c0b7b5649e80f734d9ea00dbe0f4d6af5b12dec94e0a657739a0029",
  "source": "pragma solidity ^0.4.19;\n\n/**\n * The contractName contract does this and that...\n */\ncontract dApp {\n\n\t// set the tokens\n\tuint256 public totalSupply;\n\n\t// constructor\n\tfunction dApp () public {\n\t\ttotalSupply = 1000000;\n\t}\t\t\n}\n",
  "sourcePath": "/home/dinc/Рабочий стол/Code/dApp/contracts/dApp.sol",
  "compiler": {
    "name": "solc",
    "version": "0.4.23+commit.124ca40d.Emscripten.clang"
  },
  "schemaVersion": "2.0.0",
  "updatedAt": "2018-05-05T19:20:49.690Z"
}